:020000040800F2
:10000000D0080020E9020008450300084503000865
:1000100045030008450300084503000800000000F0
:100020000000000000000000000000004503000880
:1000300045030008000000004503000845030008D0
:100040004503000845030008450300084503000870
:10005000450300084503000889010008450300081E
:100060004503000845030008450300084503000850
:100070004503000845030008450300084503000840
:100080004503000845030008450300084503000830
:100090004503000845030008450300084503000820
:1000A0004503000845030008450300084503000810
:1000B0004503000845030008450300084503000800
:1000C00045030008450300084503000845030008F0
:1000D00045030008450300084503000845030008E0
:1000E00045030008450300084503000845030008D0
:1000F00045030008450300084503000845030008C0
:1001000045030008450300084503000845030008AF
:10011000450300084503000845030008450300089F
:10012000450300084503000845030008450300088F
:10013000450300084503000845030008450300087F
:10014000450300084503000845030008450300086F
:10015000450300084503000845030008450300085F
:10016000450300084503000845030008450300084F
:10017000450300084503000845030008450300083F
:10018000450300084503000880B500AF012000F0DA
:1001900055FC0346002B10D0084B1B78002B14BFD6
:1001A00000230123DBB21A46044B1A7004482021B5
:1001B00000F070FB012000F065FC80BD1C000020F9
:1001C000000C024080B582B000AF124B7B6032233E
:1001D0003B60114B1B685B003A6802FB03F37A68D3
:1001E00092FBF3F20D4B1A600220012100F070FA2D
:1001F0000220012100F04EFA0820012100F04AFA05
:1002000000F05AF800F00EF8054B2022DA630837A8
:10021000BD4680BD00A24A0400000020240000204A
:100220000004004080B58AB000AF1F4B1B683B62E2
:100230001E4B1B689BB2BB830023BB840023FB8344
:1002400007F11C031A48194600F02AFC60233B8181
:1002500001237B8100233B610023BB8207F108035C
:100260001348194600F0A6FC1148082100F028FDAB
:1002700001233B6002233B710023BB7103237B718D
:100280000023FB713B460B48194600F03FFA094832
:100290000021022200F010FB0548012100F06AFC59
:1002A0002837BD4680BD00BF00000020240000208C
:1002B000000400400004024080B582B000AF4FF25D
:1002C00060033B6001233B710023BB7103237B71FF
:1002D0000023FB713B460348194600F017FA083724
:1002E000BD4680BD000C024080B582B000AF104B0F
:1002F0007B60104B3B6007E03B681A1D3A607A68F0
:10030000111D796012681A603A680B4B9A42F3D358
:100310000A480B494FF000028842B8BF40F8042B4E
:10032000FFF6FAAF00F012F80837BD4680BD00BFF7
:10033000F80C0008000000201C0000201C00002019
:10034000D000002080B400AFFEE700BF80B582B0CF
:1003500000AF00F0F7FA00F0BBF84FF4FA6000F0DD
:100360006DF8284B00221A60274B00221A60FFF715
:1003700029FF00F0B3F878607B68002B09D100F00A
:1003800033F902461F4B1A6000F05AF902461E4B21
:100390001A6040F6B83000F051F81C4B1B685A1C2C
:1003A0001A4B1A60194B1B68022B02DD184B0F22E7
:1003B000DA63154B1B68452B09DC144B1B68082BB3
:1003C00005DD134B2022DA63104B00221A600D4B1F
:1003D0001B681C2B04DC0F48202100F03FFA07E0CB
:1003E000084B1B681E2B03DD0A48202100F044FA4D
:1003F0000848202100F018FA03461A46064B1A60F6
:10040000B7E700BF280000202C00002004000020D7
:1004100000040040000C02402000002080B483B0A3
:1004200000AF786000BF7B685A1E7A60002BFAD15B
:100430000C37BD465DF8047B704700BF80B582B0C5
:1004400000AF78607B684FF47A7202FB03F31846C2
:10045000FFF7E4FF0837BD4680BD00BF80B582B01E
:1004600000AF20233B6002237B7100233B710023FC
:10047000BB710123FB713B460348194600F046F966
:100480000837BD4680BD00BF0000024080B582B085
:1004900000AF20233B6002237B7101233B710023CB
:1004A000BB710123FB713B460348194600F02EF94E
:1004B0000837BD4680BD00BF0000024080B500AFD8
:1004C0000120012100F0E6F8FFF7E0FF80BD00BF4A
:1004D00080B500AFFFF7F2FF80BD00BF80B584B0EC
:1004E00000AF0023FB700023FB604FF47A70FFF72E
:1004F000A5FFFFF7CBFF3A48202100F0BDF91220FD
:10050000FFF79CFF3648202100F0A8F92820FFF7CC
:1005100085FFFFF7A3FF0023FB60FB68322B03DDA1
:100520000223FB70FB7856E0FB680133FB6001207F
:10053000FFF774FF2A48202100F076F90346012BCB
:10054000EBD0FB78002B01D0FB7844E05020FFF784
:1005500065FF5020FFF762FF0023BB600023BB60F4
:1005600035E000237B600AE07B6801337B607B68B9
:10057000372B01DD05232EE00120FFF74FFF184840
:10058000202100F051F90346002BEDD000237B60C1
:1005900013E07B6801337B607B68072B05DD114B23
:1005A000BA68012143F8221004E00E4BBA6800211A
:1005B00043F822100120FFF731FF0948202100F005
:1005C00033F90346012BE4D0BB680133BB60BB6841
:1005D000272BC6DDFB7818461037BD4680BD00BF0F
:1005E000000002403000002080B485B000AF00233E
:1005F000FB604FF48073BB6000237B601023FB60C3
:1006000011E00E4BFA6853F82230BA6802FB03F38C
:100610007A6813447B60BB68DA0F13445B10BB60DD
:10062000FB680133FB60FB68172BEADD7B6818462B
:100630001437BD465DF8047B704700BF30000020D2
:1006400080B485B000AF0023FB608023BB60002333
:100650007B600123FB6011E00D4BFA6853F82230F8
:10066000BA6802FB03F37A6813447B60BB68DA0F55
:1006700013445B10BB60FB680133FB60FB68072B16
:10068000EADD7B6818461437BD465DF8047B704789
:100690003000002080B483B000AF78600B46FB7060
:1006A000FB78002B06D0094B084A116B7A680A4385
:1006B0001A6306E0054B054A116B7A68D2430A407B
:1006C0001A630C37BD465DF8047B70470038024062
:1006D00080B483B000AF78600B46FB70FB78002BD2
:1006E00006D0094B084A116C7A680A431A6406E07E
:1006F000054B054A116C7A68D2430A401A640C37DC
:10070000BD465DF8047B70470038024080B487B076
:1007100000AF7860396000237B6100233B610023D8
:10072000FB6000237B6176E07B69012202FA03F320
:100730003B613B681A683B691340FB60FA683B69A0
:100740009A4265D17B681A687B695B00032101FAD4
:1007500003F3DB431A407B681A607B681A683B68C6
:100760001B7919467B695B0001FA03F31A437B6826
:100770001A603B681B79012B03D03B681B79022B65
:100780002ED17B689A687B695B00032101FA03F331
:10079000DB431A407B689A607B689A683B685B79A8
:1007A00019467B695B0001FA03F31A437B689A6080
:1007B0007B685A687B699BB2012101FA03F3DB4332
:1007C0001A407B685A607B685A683B689B79194677
:1007D0007B699BB201FA03F39BB21A437B685A60B0
:1007E0007B68DA687B699BB25B00032101FA03F343
:1007F000DB431A407B68DA607B68DA683B68DB7948
:1008000019467B695B0001FA03F31A437B68DA60DF
:100810007B6901337B617B690F2B85D91C37BD4612
:100820005DF8047B704700BF80B485B000AF78608E
:100830000B467B800023FB737B681A697B8813401F
:10084000002B02D00123FB7301E00023FB73FB7B31
:1008500018461437BD465DF8047B704780B483B0FA
:1008600000AF78600B467B807B687A881A830C37F0
:10087000BD465DF8047B704780B483B000AF7860FC
:100880000B467B807B687A885A830C37BD465DF8BF
:10089000047B704780B483B000AF78600B467B80E8
:1008A0007B685A697B885A407B685A610C37BD4621
:1008B0005DF8047B704700BF80B485B000AF7860FE
:1008C00013460A467A807B700023FB600023BB60DE
:1008D0007A787B8803F007039B0002FA03F3FB603E
:1008E0007B88DB089BB21A467B88DB089BB21946E3
:1008F0007B68083153F821107B8803F007039B00C5
:100900000F2000FA03F3DB4319407B68083243F8F9
:1009100022107B88DB089BB21A467B68083253F8AA
:100920002220FB681343BB607B88DB089BB21A461E
:100930007B680832B96843F822101437BD465DF869
:10094000047B704780B487B000AF00233B61002375
:100950007B610223FB600023BB6002237B60324B80
:100960009B6803F00C033B613B69042B07D0082B09
:1009700009D0002B3FD12D4B2D4A1A603FE02B4B65
:100980002C4A1A603BE0284B5B6803F480039B0D04
:10099000BB60254B5B6803F03F037B60BB68002BAB
:1009A0000DD0244A7B68B2FBF3F21F4B596847F61F
:1009B000C0730B409B0903FB02F37B610CE01C4AF4
:1009C0007B68B2FBF3F2184B596847F6C0730B40D3
:1009D0009B0903FB02F37B61134B5B6803F4403319
:1009E0001B0C01335B00FB607A69FB68B2FBF3F21E
:1009F0000E4B1A6003E00D4B0D4A1A6000BF0A4B04
:100A00009B6803F0F0031B090B4AD35CDBB23B612C
:100A1000064B1A683B69DA40044B1A601C37BD4626
:100A20005DF8047B704700BF0038024008000020DA
:100A30000024F40040787D010C00002080B485B0D3
:100A400000AF78600023FB730023BB600C4B1A6877
:100A50007B681340BB600A4B5A697B681340002BCC
:100A600005D0BB68002B02D00123FB7301E00023FB
:100A7000FB73FB7B18461437BD465DF8047B70475B
:100A8000003C014080B483B000AF7860034B7A68CB
:100A90005A610C37BD465DF8047B7047003C01404D
:100AA00080B485B000AF786039600023FB817B683B
:100AB0001B88FB817A68284B9A4213D07A68274BAF
:100AC0009A420FD07B68B3F1804F0BD07A68244BE9
:100AD0009A4207D07A68234B9A4203D07A68224B15
:100AE0009A4208D1FB8923F07003FB813B685A8846
:100AF000FB891343FB817A681C4B9A420CD07A68BD
:100B00001B4B9A4208D0FB8923F44073FB813B685E
:100B10001A89FB891343FB817B68FA891A803B6839
:100B20005A687B68DA623B681A887B681A857A683B
:100B3000094B9A4203D07A68084B9A4204D13B6829
:100B40009B7A1A467B681A867B6801229A82143740
:100B5000BD465DF8047B7047000001400004014081
:100B60000004004000080040000C0040001000405D
:100B70000014004080B483B000AF78600B46FB7077
:100B8000FB78002B08D07B681B889BB243F00103E5
:100B90009AB27B681A8007E07B681B889BB223F0BF
:100BA00001039AB27B681A800C37BD465DF8047B5E
:100BB000704700BF80B485B000AF78603960002313
:100BC0007B810023FB810023BB817B681B8C9BB254
:100BD00023F480739AB27B681A847B681B8CFB8138
:100BE0007B689B88BB817B689B8B7B817B8923F0A7
:100BF00070037B817B8923F003037B813B681A8828
:100C00007B8913437B81FB8923F40073FB813B6861
:100C10009B891B029AB2FB891343FB813B685B886B
:100C20001B029AB2FB891343FB817A68224B9A42DA
:100C300003D07A68214B9A422BD1FB8923F40063BD
:100C4000FB813B68DB891B029AB2FB891343FB8162
:100C5000FB8923F48063FB813B689B881B029AB26B
:100C6000FB891343FB81BB8923F48053BB81BB8980
:100C700023F40053BB813B681B8A1B019AB2BB89DA
:100C80001343BB813B685B8A1B019AB2BB89134348
:100C9000BB817B68BA899A807B687A899A833B6832
:100CA0009A687B68DA637B68FA891A841437BD46D0
:100CB0005DF8047B704700BF000001400004014064
:100CC00080B485B000AF78600B467B800023FB8149
:100CD0007B689B8BFB81FB8923F00803FB81FA89EE
:100CE0007B881343FB817B68FA899A831437BD465E
:080CF0005DF8047B704700BFB2
:100CF800E8030000B0040000007A030A00000000C6
:0C0D0800000000000102030406070809B7
:0400000508000000EF
:00000001FF
