:020000040800F2
:10000000A808002089010008E5010008E5010008B2
:10001000E5010008E5010008E50100080000000016
:10002000000000000000000000000000E5010008E2
:10003000E501000800000000E5010008E5010008F6
:10004000E5010008E5010008E5010008E5010008F8
:10005000E5010008E5010008E5010008E5010008E8
:10006000E5010008E5010008E5010008E5010008D8
:10007000E5010008E5010008E5010008E5010008C8
:10008000E5010008E5010008E5010008E5010008B8
:10009000E5010008E5010008E5010008E5010008A8
:1000A000E5010008E5010008E5010008E501000898
:1000B000E5010008E5010008E5010008E501000888
:1000C000E5010008E5010008E5010008E501000878
:1000D000E5010008E5010008E5010008E501000868
:1000E000E5010008E5010008E5010008E501000858
:1000F000E5010008E5010008E5010008E501000848
:10010000E5010008E5010008E5010008E501000837
:10011000E5010008E5010008E5010008E501000827
:10012000E5010008E5010008E5010008E501000817
:10013000E5010008E5010008E5010008E501000807
:10014000E5010008E5010008E5010008E5010008F7
:10015000E5010008E5010008E5010008E5010008E7
:10016000E5010008E5010008E5010008E5010008D7
:10017000E5010008E5010008E5010008E5010008C7
:10018000E5010008E501000880B582B000AF104B22
:100190007B60104B3B6007E03B681A1D3A607A6851
:1001A000111D796012681A603A680B4B9A42F3D3BA
:1001B0000A480B494FF000028842B8BF40F8042BB0
:1001C000FFF6FAAF00F012F80837BD4680BD00BF59
:1001D00010060008000000200000002000000020A1
:1001E000A400002080B400AFFEE700BF80B582B05D
:1001F00000AF00F073F84FF4FA6000F025F8094BF7
:1002000000221A6000F070F878607B68002B04D13F
:1002100000F0F0F80246034B1A6040F6B83000F0E8
:1002200013F8EFE70000002080B483B000AF7860DF
:1002300000BF7B685A1E7A60002BFAD10C37BD468E
:100240005DF8047B704700BF80B582B000AF786076
:100250007B684FF47A7202FB03F31846FFF7E4FF62
:100260000837BD4680BD00BF80B582B000AF2023F7
:100270003B6002237B7100233B710023BB71012390
:10028000FB713B460348194600F0FEF80837BD46AF
:1002900080BD00BF0000024080B582B000AF2023C7
:1002A0003B6002237B7101233B710023BB7101235F
:1002B000FB713B460348194600F0E6F80837BD4697
:1002C00080BD00BF0000024080B500AF01200121C9
:1002D00000F0BCF8FFF7E0FF80BD00BF80B500AFC5
:1002E000FFF7F2FF80BD00BF80B584B000AF0023F0
:1002F000FB700023FB604FF47A70FFF7A5FFFFF758
:10030000CBFF3A48202100F075F91220FFF79CFF3F
:100310003648202100F060F92820FFF785FFFFF71D
:10032000A3FF0023FB60FB68322B03DD0223FB707D
:10033000FB7856E0FB680133FB600120FFF774FF98
:100340002A48202100F02EF90346012BEBD0FB7840
:10035000002B01D0FB7844E05020FFF765FF5020D0
:10036000FFF762FF0023BB600023BB6035E0002382
:100370007B600AE07B6801337B607B68372B01DDA3
:1003800005232EE00120FFF74FFF1848202100F041
:1003900009F90346002BEDD000237B6013E07B6856
:1003A00001337B607B68072B05DD114BBA680121A7
:1003B00043F8221004E00E4BBA68002143F82210E3
:1003C0000120FFF731FF0948202100F0EBF8034638
:1003D000012BE4D0BB680133BB60BB68272BC6DDB3
:1003E000FB7818461037BD4680BD00BF00000240B4
:1003F0000400002080B485B000AF0023FB604FF400
:100400008073BB6000237B601023FB6011E00E4B08
:10041000FA6853F82230BA6802FB03F37A6813448F
:100420007B60BB68DA0F13445B10BB60FB68013371
:10043000FB60FB68172BEADD7B6818461437BD4666
:100440005DF8047B704700BF0400002080B483B0D7
:1004500000AF78600B46FB70FB78002B06D0094B91
:10046000084A116B7A680A431A6306E0054B054A8D
:10047000116B7A68D2430A401A630C37BD465DF8A7
:10048000047B70470038024080B487B000AF7860CA
:10049000396000237B6100233B610023FB60002364
:1004A0007B6176E07B69012202FA03F33B613B68E2
:1004B0001A683B691340FB60FA683B699A4265D150
:1004C0007B681A687B695B00032101FA03F3DB4355
:1004D0001A407B681A607B681A683B681B7919466A
:1004E0007B695B0001FA03F31A437B681A603B687F
:1004F0001B79012B03D03B681B79022B2ED17B6823
:100500009A687B695B00032101FA03F3DB431A401D
:100510007B689A607B689A683B685B7919467B695F
:100520005B0001FA03F31A437B689A607B685A68A0
:100530007B699BB2012101FA03F3DB431A407B681C
:100540005A607B685A683B689B7919467B699BB205
:1005500001FA03F39BB21A437B685A607B68DA683E
:100560007B699BB25B00032101FA03F3DB431A4072
:100570007B68DA607B68DA683B68DB7919467B69FF
:100580005B0001FA03F31A437B68DA607B6901338D
:100590007B617B690F2B85D91C37BD465DF8047BD9
:1005A000704700BF80B485B000AF78600B467B8099
:1005B0000023FB737B681A697B881340002B02D0F1
:1005C0000123FB7301E00023FB73FB7B1846143708
:1005D000BD465DF8047B704780B483B000AF78609F
:1005E0000B467B807B687A881A830C37BD465DF8A2
:1005F000047B704780B483B000AF78600B467B808B
:100600007B687A885A830C37BD465DF8047B704757
:0400000508000000EF
:00000001FF
